:020000040800F2
:10000000685A0020F10200087F080008390800083B
:100010007D080008B90700087B0C000800000000FC
:10002000000000000000000000000000390200088D
:10003000BB070008000000008D02000879090008D5
:100040000B0300080B0300080B0300080B03000858
:100050000B0300080B0300080B0300080B03000848
:100060000B0300080B0300080B0300080B03000838
:100070000B0300080B0300080B0300080B03000828
:100080000B0300080B0300080B0300080B03000818
:100090000B0300080B0300080B0300080B03000808
:1000A0000B0300080B0300080B0300080B030008F8
:1000B0000B030008E90900080B0300080B03000804
:1000C0000B0300080B0300080B0300080B030008D8
:1000D0000B030008C10A0008950B0008C90B0008B3
:1000E0000B0300080B0300080B0300080B030008B8
:1000F0000B0300080B0300080B0300080B030008A8
:100100000B0300080B030008250A00080B03000876
:10011000810A0008B10A00080B0300080B0300085D
:100120000B0300080B0300080B0300080B03000877
:100130000B0300080B0300080B0300080B03000867
:100140000B0300080B0300080B0300080B03000857
:100150000B0300080B0300080B030008F90B000851
:100160000B0300080B0300080B0300080B03000837
:100170000B0300080B0300080B0300080B03000827
:100180000B0300080B03000800F002F800F044F82D
:100190000AA090E8000C82448344AAF10107DA45E2
:1001A00001D100F039F8AFF2090EBAE80F0013F0F0
:1001B000010F18BFFB1A43F0010318478428000001
:1001C000A4280000103A24BF78C878C1FAD8520792
:1001D00024BF30C830C144BF04680C6070470000C1
:1001E0000023002400250026103A28BF78C1FBD840
:1001F000520728BF30C148BF0B607047642900F028
:100200000381732900F01082002070471FB502F0AF
:1002100011FC1FBD10B510BD00F09BFA1146FFF791
:10022000F5FF00F055FD00F0B9FA03B4FFF7F2FF57
:1002300003BC00F023FD00002A4B19680868B0E8F1
:10024000F04F80F30988BFF36F8F4FF0000080F309
:10025000118870470000000006480068006880F3BD
:10026000088862B661B6BFF34F8FBFF36F8F00DFB0
:1002700000BF00BF08ED00E0DFF80C00016841F4AA
:1002800070010160704700BF88ED00E0EFF3098066
:10029000BFF36F8F134B1A681EF0100F08BF20EDCD
:1002A000108A20E9F04F106008B44FF0500080F33E
:1002B0001188BFF34F8FBFF36F8F01F08BFD4FF0AD
:1002C000000080F3118808BC19680868B0E8F04F96
:1002D0001EF0100F08BFB0EC108A80F30988BFF33E
:1002E0006F8F704744000020EFF3058070470000D7
:1002F0000948804709480047FEE7FEE7FEE7FEE7BA
:10030000FEE7FEE7FEE7FEE7FEE7FEE704480549F5
:10031000054A064B704700008D0900088901000856
:1003200068540020685A0020685600206856002053
:10033000704700000FB4044910B503AA029800F0FA
:1003400077F910BC5DF814FB400000202DE9F04166
:100350000E460446002020622046E168884730B3FC
:10036000252805D0D4E901219047206A401CF2E7F6
:10037000E168204600278847050018D0A5F1410014
:10038000192802D820354FF4006732462946204606
:100390002760FFF733FF40B1012804D0F61D26F097
:1003A00007060836D8E7361DD6E72846DAE7206A7A
:1003B000BDE8F08170B50C460546012A05D02878C5
:1003C000800600D5EA69002302E0012305E05B1CFA
:1003D000934202D2E05C0028F9D1A869E618C01A5D
:1003E000A861286A184428622846AFF3008004E018
:1003F000D5E9012114F8010B9047B442F8D32846FF
:10040000AFF3008070BD00002DE9F04106460024E6
:1004100010687529314616A510D0AFF3008000286A
:1004200002DA404213A507E031688A0701D512A518
:1004300002E0490704D511A5012401E0AFF30080D3
:1004400000210A2206F1240709E0B0FBF2FCB0FB10
:10045000F2F302FB1C00303078541846491C002887
:10046000F3D123462A463046BDE8F04100F059B8A2
:10047000000000002D0000002B0000002000000004
:10048000032A40F2308010F0030C00F0158011F8C0
:10049000013BBCF1020F624498BF11F801CB00F898
:1004A000013B38BF11F8013BA2F1040298BF00F8EC
:1004B00001CB38BF00F8013B11F0030300F0CA8004
:1004C000083AC0F0088051F8043B083A51F804CBD0
:1004D000A0E80810F5E7121D5CBF51F8043B40F896
:1004E000043BAFF30080D20724BF11F8013B11F8A1
:1004F00001CB48BF11F8012B24BF00F8013B00F8E5
:1005000001CB48BF00F8012B704702F0FF0343EA1C
:10051000032242EA024200F0D1B8704770477047A8
:1005200070472DE9F0470D4699469246044600F182
:1005300024080168880604D5E06921F010012160D3
:1005400000E00120A84201DD471B00E00027A1696F
:100550007A1902EB0900081AA0612078C00602D4BB
:100560002046AFF30080002608E0D4E901211AF804
:1005700006009047206A401C761C20624E45F4DB42
:100580002078C0060AD52046AFF3008006E0D4E903
:10059000012130209047206A401C2062381EA7F1BC
:1005A0000107F4DC07E0D4E9012118F805009047C1
:1005B000206A401C2062281EA5F10105F3DC2046BC
:1005C000AFF300802078000602D50220BDE8F08756
:1005D0000120FBE701694A1C02610878704700B5F9
:1005E0008FB0CDE901310021059105497944CDE96C
:1005F000031011466846FFF7A9FE0FB000BD0000CA
:10060000E5FFFFFF10B5436913B1AFF3008001E0D0
:10061000FFF7D0FE012010BD127800F124010A700E
:1006200000224A700122EDE711684FF0FF32E9E73E
:10063000074B70B50D467B44FFF7D1FF04462846B3
:1006400000F05CF810B14FF0FF3070BD204670BD77
:100650007F06000010B5203AC0F00B80B1E81850BA
:10066000203AA0E81850B1E81850A0E81850BFF49C
:10067000F5AF5FEA027C24BFB1E81850A0E818503B
:1006800044BF18C918C0BDE810405FEA827C24BF8F
:1006900051F8043B40F8043B08BF7047D20728BF1D
:1006A00031F8023B48BF11F8012B28BF20F8023B6C
:1006B00048BF00F8012B70474FF000020429C0F03A
:1006C000128010F0030C00F01F80CCF1040CBCF180
:1006D000020F18BF00F8012BA8BF20F8022BA1EBD6
:1006E0000C0100F011B85FEAC17C24BF00F8012BB7
:1006F00000F8012B48BF00F8012B7047007B00F089
:10070000800070474FF0000200B5134694469646AD
:10071000203922BFA0E80C50A0E80C50B1F1200114
:10072000BFF4F7AF090728BFA0E80C5048BF0CC0C2
:100730005DF804EB890028BF40F8042B08BF704720
:1007400048BF20F8022B11F0804F18BF00F8012B92
:100750007047754600F02CF8AE46050069465346D2
:1007600020F00700854618B020B5FFF7CFFDBDE8A3
:1007700020404FF000064FF000074FF000084FF008
:10078000000B21F00701AC46ACE8C009ACE8C00999
:10079000ACE8C009ACE8C0098D46704710B5044606
:1007A000AFF300802046BDE81040FFF73EBD0000DB
:1007B0000048704704540020FEE77047F0B500225F
:1007C00001274FF0030C0B6807FA02F52B40AB42F0
:1007D0002CD1066853000CFA03F4A64306600E7988
:1007E000D0F800E09E4046EA0E0606600E79012E23
:1007F00001D0022E12D18668A64386604E79D0F8C9
:1008000008E09E4046EA0E0686604668AE434660B3
:1008100045688E799640B6B235434560C568A543B4
:10082000C560CC799C40C3681C43C460521C102A2C
:10083000C9D3F0BD01837047FEE700007CB50121FC
:10084000202000F027F801208DF8040000228DF808
:10085000062003218DF80510074D4FF4C0648DF874
:100860000700009469462846FFF7A8FF214628465E
:10087000FFF7E0FF7CBD000000140240FEE7704778
:100880000249084302490860704700000000FA0569
:100890000CED00E0044A0029116801D0014300E09A
:1008A0008143116070470000303802400CB50022CF
:1008B000274900920192086840F4803008604FF4A4
:1008C000A043086800F4003001900098401C00909C
:1008D000019810B900989842F3D10868800334D584
:1008E000012001901A484030026842F080520260B4
:1008F0001848026842F44042026015480830026815
:100900000260026842F400420260026842F4A052AF
:100910000260031F104A1A600A6842F080720A607F
:100920000A689201FCD50D4940F205720A6001681F
:1009300021F003010160016841F0020101600168DA
:10094000C1F381010229FAD10CBD01920CBD000056
:10095000003802400070004008544007003C02404C
:100960004FF0E0210428086903D020F0040008615A
:10097000704740F00400FAE710B501F0FFFD0128D0
:1009800003D0BDE8104001F0EDBA10BD124810B51B
:10099000016841F4700101601048016841F00101F3
:1009A00001600E4A00210832116002680C4B1A40A7
:1009B0000260031D0B4A1A60026822F48022026062
:1009C00006480C300160FFF771FF03494FF00060EB
:1009D0008039086010BD000088ED00E0003802405A
:1009E000FFFFF6FE1030002410B5084C0121204610
:1009F00000F039F8012802D105A0FFF79BFC204642
:100A0000BDE81040012100F02BB8000000040040B8
:100A100054494D33CAE4B3F62E2E2E2E2E2E2E0D13
:100A20000A00000010B5084C0121204600F01BF818
:100A3000012802D105A0FFF77DFC2046BDE810404B
:100A4000012100F00DB80000000C004054494D3564
:100A5000CAE4B3F62E2E2E2E2E2E2E0D0A000000E6
:100A6000C9430182704702460020138A92890B42D3
:100A700002EA010202D0002A00D0012070470000E3
:100A800070B50A4C40F225552946204600F0CEF8B4
:100A900030B1204600F0E9F8C1B2204600F0E9F894
:100AA00029462046BDE8704000F0BAB8004C00402E
:100AB00040F22551014800F0B3B80000005000405A
:100AC0002DE9F041314D40F225542146284600F0F1
:100AD000ADF870B3284600F0C8F8C3B22C48411DE9
:100AE0004370A52B01D1C2781AB10A78A52A02D089
:100AF00005E00B7044E0112B01D1C278D2B14A78E5
:100B00000026112A18D0C17899B1C278012A1AD0CA
:100B1000022A1BD01E4FFF1D032A1AD0042A18D008
:100B2000B91C052A1BD0062A1CD0072A23D0082A64
:100B300024D025E04B7023E0C278002AE5D10122C1
:100B4000C2700E704E700370022115E08370032195
:100B500012E0B918521C01F8033CC27010E00B708F
:100B6000062109E04B703A78323A0261097832394D
:100B70004161072100E00821C17001E0C6700671E3
:100B800021462846BDE8F04100F04AB80010014077
:100B90002800002070B50A4D40F225542146284611
:100BA00000F044F830B1284600F05FF8C2B20548C2
:100BB000643AC26021462846BDE8704000F030B873
:100BC000004400402800002070B50A4C40F2255532
:100BD0002946204600F02AF830B1204600F045F8BA
:100BE0000146204600F045F829462046BDE8704001
:100BF00000F016B80048004070B5084D40F225548A
:100C00002146284600F012F810B1284600F02DF8D1
:100C100021462846BDE8704000F002B800140140AB
:100C20000A0A01219140C9430180704770B501F063
:100C30001F0501260024C1F3421306FA05F2012B19
:100C40000FD0022B0FD0838A4FEA11210088134264
:100C500006FA01F600EA060001D000B101242046A0
:100C600070BD8389F0E7038AEEE78088C0F308004F
:100C70007047C1F3080181807047FEE770470000AC
:100C800010B504460420FFF76BFE0A484FF47A7152
:100C9000047014FB01F1012242804FF0E020026950
:100CA00042F0020202614161016941F0010101610A
:100CB00010BD00002400002004490A885206FCD51B
:100CC000024AC1B2121D1180704700000048004066
:100CD0001CB54FF44070FFF7D3FDA820FFF7D0FFFD
:100CE000FFF7ACFD08494FF478400023088007491E
:100CF0000120CDE90001802205A1084801F012FC85
:100D000001F016F800201CBD20000020000000208B
:100D100073746172745F7461736B0000DD16000898
:100D20002DE9F041184E0F460446F5683068001D65
:100D300000F014FD38B9306890F82C10012088407C
:100D4000316981433161601C07D137B13168BDE839
:100D5000F0410E48091D00F039BD30682C44AC420A
:100D60004460316805D2B06BBDE8F041091D00F068
:100D700015BD706B091D00F011FDB06A844200D2F0
:100D8000B462BDE8F081000044000020C8030020E8
:100D90002DE9F041054600F025FD2D4EB068401CC0
:100DA000B06030682B4F10B1706930B32BE0356004
:100DB000B068012827D1002404EB840007EB8000F1
:100DC00000F0DEFC641C202CF6D3234800F0D8FC95
:100DD0002148143000F0D4FC1F48283000F0D0FC2B
:100DE0001D483C3000F0CCFC1B48503000F0C8FCE3
:100DF000194870631430B06305E03068E96AC06A6E
:100E0000884200D83560706A0121401C70626864B5
:100E1000E86A326981401143316100EB800007EBE1
:100E20008000291D00F0D2FC00F018FD7069002838
:100E30000CD03068E96AC06A884207D207494FF08F
:100E400080500860BFF34F8FBFF36F8FBDE8F08114
:100E500044000020F80000207803002004ED00E0AA
:100E600010B500F0BFFC0E4C2068A0B90D4800F092
:100E700087FC0C48143000F083FC0A48E060143012
:100E8000206100221021052001F082F8206010B1BD
:100E900005A100F0B9FDBDE8104000F0DFBC000086
:100EA00080000020DC030020546D7251000000001F
:100EB00070B5124E124D1CE000F084FF306820B176
:100EC000002401F089FCA4B901E00124F9E700F055
:100ED00089FCF068C468201D00F040FCA868401E32
:100EE000A8606868401E686000F0B8FC204600F00A
:100EF00052F868680028DFD170BD0000B4030020FC
:100F00004400002030B4026C0B46002A0BD0C168AC
:100F10001144C1604468A14201D30168C16030BC82
:100F20001846FFF7ADBA30BC70472DE9F041856B2C
:100F3000174604460026026C82B1C7B1E068FFF78D
:100F40009FFAE168206C091AE1602268914202D29E
:100F50006168081AE060022F16D017E02068A8B96F
:100F6000606801F093FB0646002060600EE0A06818
:100F7000FFF786FA216CA0680844A0606168884287
:100F800004D32068A06001E005B16D1E6D1CA5634F
:100F90003046BDE8F08110B50446006B00F090FCCF
:100FA0002046BDE8104000F08BBC000010484FF414
:100FB000A041420706D0C01D0D4920F00700411A8C
:100FC000C1F5A0410B4A00230144C2E900030839DE
:100FD000103A21F0070111604B600B600B1AC0E959
:100FE000001393604FF000405360D06070470000E2
:100FF00004040020B0000020074E4FF08054074D3D
:10100000FFF756FF30680128FAD92C60BFF34F8FE5
:10101000BFF36F8FF4E70000F800002004ED00E05C
:101020002DE9F047DDE909840E4617468246910016
:101030009946089DA522206BFFF767FA6FF0030120
:10104000206B01EB8701084420F00707780705D0E3
:1010500040F22B3219A11EA0FFF76CF900202218D4
:10106000315C82F83410315C11B1401C1028F6D389
:10107000002684F84360202D00D31F25E562C4E9D3
:101080001356201D00F087FB04F1180000F083FBCD
:101090002461C5F120006462A061666584F858602F
:1010A0004A465146384600F003FB2060B8F1000F75
:1010B00001D0C8F80040BDE8F08700002E2E5C4645
:1010C00072656552544F535C7461736B732E630089
:1010D0004572726F723A25732C25640D0A00000068
:1010E00030B5114900E011460A688242FBD34B68D3
:1010F0005C18844203D1406818444860084643683D
:101100001C18944209D1084C103C2468A24209D012
:1011100052681A4442600A6812680260814200D034
:10112000086030BD0460F9E7B000002070B500240D
:1011300041600B4D0061914206D8D11A82699142FB
:1011400006D2011D286907E09A4203D2994201D3D1
:10115000012403E0011DE86800F020FB204670BD7B
:101160008000002010B5044600F03CFBA06B20B1CD
:10117000002400F073FB204610BD0124F9E70000B5
:101180002DE9F34100980F460026846C2CB940F6F7
:10119000CE1216A11AA0FFF7CDF8A06BE16B884222
:1011A00005D340F6CF1211A115A0FFF7C3F8A06B2D
:1011B000E16B88420CD294F945503A466946204684
:1011C000FFF7B3FE0646681C05D06D1C84F8455039
:1011D0003046BDE8FC81606A0028F9D004F12400A3
:1011E00001F0AEFA0028F3D00126F1E72E2E5C467E
:1011F00072656552544F535C71756575652E630059
:101200004572726F723A25732C25640D0A00000036
:10121000F8B5054614480E46C068C068C468201D6D
:1012200000F09CFAE069012817D1A0692B4641190A
:1012300032462046FFF77AFF78B100200346014688
:1012400000902A46204601F0ADFB30B907494FF423
:10125000027201F11800FFF76DF8616A01B02046D3
:10126000BDE8F04008470000800000200829000881
:1012700070B586B02F4E53E00198002806DADDE9FC
:101280000301029A90470198002849DB039C60699A
:1012900010B1201D00F062FA05A800F0A7F805467D
:1012A00001980A283CD2DFE800F00505053B273805
:1012B00005053B270298A169034601442A462046BA
:1012C000FFF734FF00282BD0616A20468847E06989
:1012D000012825D1002000900298A169002342181E
:1012E0001946204601F05EFBD0B940F2213212A12E
:1012F00017A0FFF71FF813E00298A06128B94FF478
:101300004E720DA112A0FFF715F8A0692B464119E6
:101310001A462046FFF70AFF02E0204600F0D0FA06
:1013200000231A4601A9306800F06EFE0028A3D100
:1013300006B070BD800000202E2E5C46726565529E
:10134000544F535C74696D6572732E630000000026
:101350004572726F723A25732C25640D0A000000E5
:10136000F8B50D46064600F02DFD684600F03EF843
:101370000446009810B101F02FFAF8BD1148ADB144
:1013800001690968D9B10025311B2A46006800F0BF
:101390004DFB01F021FA0028EFD10B494FF08050AE
:1013A0000860BFF34F8FBFF36F8FF8BDA642EBD835
:1013B00001F012FA21463046FFF72AFFF8BD012559
:1013C000E2E700008000002004ED00E00648416BE9
:1013D000096829B1416BC968C96849688162704769
:1013E0004FF0FF31FAE700004400002070B50546D9
:1013F00001F0D2F8064E0446B068844203D200F0F1
:1014000009F8012000E0002028602046B46070BD8B
:1014100080000020F8B5184E26E0C068C468056852
:10142000201D00F09BF9616A20468847E069012889
:101430001AD1A0692844A84206D924616060211D00
:10144000F06800F0ABF90FE0002003460146009081
:101450002A46204601F0A6FA30B9084940F29232F5
:1014600001F11800FEF766FFF06801680029D4D189
:101470003169C6E90310F8BD800000200829000882
:1014800008484068401C05D040F20F1206A111A088
:10149000FEF750FF502080F31188BFF34F8FBFF34A
:1014A0006F8FFEE7940000202E2E5C467265655219
:1014B000544F535C706F727461626C655C52564439
:1014C000535C41524D5F434D34465C706F72742ED5
:1014D000630000004572726F723A25732C25640D0B
:1014E0000A000000084CE068016839B1002139B1F8
:1014F0000020FFF735FFFFF7BBFEF4E70121F6E719
:10150000C0680068F5E70000800000202DE9F04188
:10151000044600F067F994F9455004F1240610E000
:10152000A06C20B100212046FFF72AFE04E0606A8B
:1015300048B1304601F004F908B100F035FB6D1EEA
:101540006DB2002DECDC4FF0FF3684F8456000F002
:1015500085F900F047F994F9445004F1100709E0C7
:10156000206948B1384601F0EBF808B100F01CFBE7
:101570006D1E6DB2002DF3DC84F84460BDE8F041CF
:1015800000F06CB92DE9F0410546002600F01AFC88
:10159000324F386808B9FFF709FDF86805424FD1A6
:1015A000002D4DD0083568070BD005F00700C0F1BD
:1015B00008000544680704D0BF2229A132A0FEF725
:1015C000B9FE002D3CD07868854239D823491031C6
:1015D0000846046801E0214604466068A84202D239
:1015E00020680028F7D13868B846844228D00E68B1
:1015F0002068086060680836401B10280ED96719FB
:10160000780704D0EC2216A11FA0FEF793FE6068B5
:10161000401B786038466560FFF762FD6168D8F866
:1016200004004246401AC8F80400D8F8083098422E
:1016300000D29060D8F80C0001430020C4E90001FA
:1016400001F0CAF8700705D04FF4967204A10EA0FD
:10165000FEF770FE3046BDE8F0810000A0000020DB
:101660002E2E5C4672656552544F535C706F7274D7
:1016700061626C655C4D656D4D616E675C6865614E
:10168000705F342E630000004572726F723A2573EA
:101690002C25640D0A0000000449086818B1086888
:1016A000026D521C0265086870470000440000206B
:1016B00010B5031F4FF080741C601B1F21F0010147
:1016C0001960191F044B0B6014390A60091F6FF071
:1016D000020244380A6010BD811400081CB500F0F5
:1016E00081F80F490220CDE90001002380220DA1DD
:1016F0000F4800F017FF0A490320091DCDE900013A
:10170000002380220BA10E4800F00CFF0448001FAC
:10171000006800F0E3F9BDE81C4000F09FB800004D
:10172000040000207461736B315F7461736B00009F
:10173000451700087461736B325F7461736B00004E
:10174000511700084FF47A74204600F091F9FBE736
:101750004FF47A74204600F08BF9FBE7D0E90132B0
:1017600001699A60D0E901235A604A68824201D136
:1017700082684A60002202610868401E0860704763
:1017800000F108014FF0FF32C0E90112C1600161B0
:1017900000210160704700210161704730B50C687D
:1017A000621C02D000F1080202E0026904E01A465D
:1017B00053681D68A542FAD953684B6099608A60E6
:1017C000516008610168491C016030BD42684A608F
:1017D00093688B6093685960916008610168491C47
:1017E00001607047502080F31188BFF34F8FBFF323
:1017F0006F8F09494868401C486001280AD1074892
:10180000006810F0FF0F05D040F2B91204A10FA03C
:10181000FEF790BD704700009400002004ED00E04A
:101820002E2E5C4672656552544F535C706F727415
:1018300061626C655C525644535C41524D5F434D4E
:1018400034465C706F72742E630000004572726FD4
:10185000723A25732C25640D0A00000010B5084C5F
:10186000606828B94FF4E07206A111A0FEF762FD8E
:101870006068401E606001D180F3118810BD0000D7
:10188000940000202E2E5C4672656552544F535CC6
:10189000706F727461626C655C525644535C415265
:1018A0004D5F434D34465C706F72742E63000000D0
:1018B0004572726F723A25732C25640D0A00000080
:1018C00070B500282AD0164DA0F108046068E968B8
:1018D000084205D14FF4A07212A11CA0FEF72AFD08
:1018E000206828B140F241120EA118A0FEF722FD97
:1018F0006068E968084211D02268002A0ED1884346
:10190000606000F05FFA60686968084468602046BB
:10191000FFF7E6FBBDE8704000F05EBF70BD000061
:10192000A00000202E2E5C4672656552544F535C19
:10193000706F727461626C655C4D656D4D616E6750
:101940005C686561705F342E630000004572726FE1
:10195000723A25732C25640D0A00000006484FF4E6
:101960007A710068B0FBF1F14FF0E020491E41614F
:1019700007210161704700000C00002010B5FEF740
:10198000B3FC104C10280CD300F1E02090F8F003C9
:101990002178884205D24FF440720BA115A0FEF7C2
:1019A000C9FC18480068A16800F4E060884207D9C3
:1019B000BDE810404FF4447203A10EA0FEF7BABC7C
:1019C00010BD0000940000202E2E5C46726565520A
:1019D000544F535C706F727461626C655C52564414
:1019E000535C41524D5F434D34465C706F72742EB0
:1019F000630000004572726F723A25732C25640DE6
:101A00000A0000000CED00E010B5074B002253F86F
:101A100032401CB1521C082AF9D310BD43F83210D1
:101A200003EBC201486010BDB800002070B5154638
:101A30000E460446FFF7D6FE94F944100020491CD8
:101A400001D184F8440094F94510491C01D184F86F
:101A50004500FFF703FFA06B28B92A46314604F181
:101A6000240000F0D1F82046BDE87040FFF74EBDDD
:101A700010B5040012D00E49096B29B140F2CF42D3
:101A80000CA111A0FEF756FC00F09CF900212046A5
:101A9000FFF746F900F0A0FE002807D10E494FF0ED
:101AA00080500860BFF34F8FBFF36F8F10BD0000F1
:101AB000440000202E2E5C4672656552544F535CE4
:101AC0007461736B732E63004572726F723A257383
:101AD0002C25640D0A00000004ED00E070B50446FA
:101AE000FFF780FE234D04B92C68201DFFF736FE5A
:101AF00058B9E06A204A00EB800152F8211021B960
:101B000001218140286988432861A06A18B104F145
:101B10001800FFF723FE686A401C68622868844248
:101B200007D1211D1548FFF751FE6868401C686009
:101B300007E0A868401EA8602046FFF72CFAFFF7D0
:101B400045FCFFF78BFE6869002812D028688442A4
:101B50000FD1286B28B140F2654209A10DA0FEF714
:101B6000E9FB10494FF080500860BFF34F8FBFF37F
:101B70006F8F70BD44000020F8000020B4030020E7
:101B80002E2E5C4672656552544F535C7461736BC4
:101B9000732E63004572726F723A25732C25640DA3
:101BA0000A00000004ED00E001490120C86170470F
:101BB0004400002070B50D46040005D140F6063201
:101BC00007A10CA0FEF7B6FB0E48016820461831AD
:101BD000FFF7E4FD2846BDE870400121FFF7A0B8FB
:101BE0002E2E5C4672656552544F535C7461736B64
:101BF000732E63004572726F723A25732C25640D43
:101C00000A0000004400002070B514460E4605008E
:101C100005D140F6313209A10DA0FEF78BFB10482B
:101C2000016828461831FFF7D1FD0CB14FF0FF369F
:101C300021463046BDE87040FFF772B82E2E5C4654
:101C400072656552544F535C7461736B732E6300FD
:101C50004572726F723A25732C25640D0A000000DC
:101C60004400002070B5040039D01D4DE06A296899
:101C7000C96A884233D2A069002804DB2868C06A98
:101C8000C0F12000A061E06A164E00EB800061699F
:101C900006EB800081421FD1201DFFF75FFD01216F
:101CA00050B9E06A00EB800256F8222022B92A6976
:101CB00001FA00F082432A612868C06AE0622A695A
:101CC00081401143296100EB800006EB8000211D5B
:101CD000BDE87040FFF77ABD2868C06AE06270BD59
:101CE00044000020F800002010B5040005D140F6A3
:101CF000C13205A109A0FEF71DFB0C48016A216055
:101D0000C068606010BD00002E2E5C467265655292
:101D1000544F535C7461736B732E63004572726F22
:101D2000723A25732C25640D0A000000440000203F
:101D30001CB517480024CDE900402346822215A196
:101D4000164800F0EFFB012803D100F0F1FD012857
:101D50000AD0401C1BD102B040F28472BDE8104092
:101D60000FA114A0FEF7E6BA502080F31188BFF34C
:101D70004F8FBFF36F8F06484FF0FF312C388162D1
:101D800001214161C460BDE81C4000F061B81CBD88
:101D90007000002049444C4500000000F90F000885
:101DA0002E2E5C4672656552544F535C7461736BA2
:101DB000732E63004572726F723A25732C25640D81
:101DC0000A0000000248016B491C016370470000D3
:101DD0004400002070B5134D286B10B10120E8615C
:101DE00070BD0020E86128690F4EB0FA80F0C0F1A4
:101DF0001F0000EB800456F8240028B940F6F622B4
:101E00000AA10FA0FEF796FA06EB840000F1080283
:101E1000416849684160914201D149684160C868A0
:101E2000286070BD44000020F80000202E2E5C4683
:101E300072656552544F535C7461736B732E63000B
:101E40004572726F723A25732C25640D0A000000EA
:101E50001CB5304C20683049884205D140F25912F7
:101E60002EA139A0FEF766FA20682B49491E884248
:101E700005D14FF4AD7229A133A0FEF75BFA364CC1
:101E800020780190FF20207020788DF800009DF8C8
:101E900000009DF8001000F0F000884205D040F2EC
:101EA00073121EA128A0FEF745FA9DF800002B4AE8
:101EB00000F0500010700720906007E09068401E0E
:101EC00090609DF8000040008DF800009DF8000033
:101ED0000006F3D4107A000200F4E06090600198EC
:101EE00020700C482030016841F4700101600168E5
:101EF00041F070410160FFF731FD00205060FEF7B6
:101F0000BBF91748016841F040410160FEF7A4F9B0
:101F100000201CBD00ED00E071C20F412E2E5C467A
:101F200072656552544F535C706F727461626C6578
:101F30005C525644535C41524D5F434D34465C7095
:101F40006F72742E630000004572726F723A2573CF
:101F50002C25640D0A00000000E400E0940000203D
:101F600034EF00E010B5502080F31188BFF34F8F9D
:101F7000BFF36F8F00F016FB18B104494FF080508B
:101F80000860002080F3118810BD000004ED00E01F
:101F90002DE9F04117460E46050005D14FF4C472F5
:101FA00010A115A0FEF7C6F9BEB105FB06F054302E
:101FB000FFF7E8FA04000ED004F154007EB120606F
:101FC000C4E90F562046012100F0E0F884F8507073
:101FD00000212046A164BDE8F0810020E7E72460ED
:101FE000EEE700002E2E5C4672656552544F535C3E
:101FF00071756575652E63004572726F723A25734F
:102000002C25640D0A0000002DE9FF4F83B09B468C
:102010008A4604004FF0000605D140F2DC4251A18F
:1020200055A0FEF787F9BAF1000F07D1206C28B14F
:1020300040F2DD424BA150A0FEF77CF900F09EFA81
:1020400038B9059828B14FF49C6246A14AA0FEF722
:1020500071F94FF000094FF08057DFF82C81FFF73E
:10206000C1FBA56B45B351462046E668FEF74AFF23
:10207000BBF1000F13D0E660606A50B104F1240098
:1020800000F05EFB28B1C8F80070BFF34F8FBFF3BC
:102090006F8FFFF7E3FB012007B0BDE8F08F6D1EE7
:1020A000A563206810B9FFF7F7FA6060206900287F
:1020B000EFD004F11000E3E7059808B11EB106E087
:1020C000FFF7CCFB27E06846FFF70EFE0126FFF77F
:1020D000C5FBFFF777FEFFF785FB94F94400401C32
:1020E00001D184F8449094F94500401C01D184F852
:1020F0004590FFF7B3FB05A9684600F0CFF900282B
:1021000020460AD0FFF702FA00F066FB2046FFF7F0
:1021100029F80028A3D00020BEE7FFF723F8D8B1A4
:10212000206830B9FFF75EFB6068FFF79BFDFFF7A3
:1021300095FB04F124000599FFF73CFD2046FFF7CD
:10214000E5F900F049FB002889D1C8F80070BFF319
:102150004F8FBFF36F8F82E72046FFF7D7F900F06C
:102160003BFB7CE72E2E5C4672656552544F535CF8
:1021700071756575652E63004572726F723A2573CD
:102180002C25640D0A00000004ED00E070B50D463A
:10219000040005D140F21B121CA121A0FEF7CAF8D1
:1021A000FFF720FBD4E90F20216802FB00116160DA
:1021B0000021A1632168A1600A46D4E90F01401EF5
:1021C00000FB0121E16021464FF0FF3001F8440F90
:1021D000487004F110004DB1FFF7D2FA04F1240069
:1021E000FFF7CEFAFFF73AFB012070BD2169002905
:1021F000F8D000F0A5FA0028F4D00D494FF0805037
:102200000860BFF34F8FBFF36F8FEBE72E2E5C4656
:1022100072656552544F535C71756575652E630028
:102220004572726F723A25732C25640D0A00000006
:1022300004ED00E02DE9FF4F83B099468B46040082
:102240004FF0000605D140F2D92252A156A0FEF768
:1022500071F8BBF1000F07D1206C28B140F2DA22EF
:102260004CA151A0FEF766F8B9F1020F08D1E06B5E
:10227000012805D040F2DB2246A14BA0FEF75AF818
:1022800000F07CF938B9059828B140F2DE2241A16E
:1022900045A0FEF74FF84FF0000A4FF08057DFF8E7
:1022A0001881FFF79FFAA06BE16B884206D3B9F162
:1022B000020F03D0059800B316B325E04A465946ED
:1022C0002046FEF732FEA16C21B149462046FEF7BA
:1022D00057FF05E0616A19B104F1240000F030FAFB
:1022E00028B1C8F80070BFF34F8FBFF36F8FFFF7AF
:1022F000B5FA012007B0BDE8F08FFFF7AFFA21E093
:102300006846FFF7F1FC0126FFF7A8FAFFF75AFD30
:10231000FFF768FA94F94400401C01D184F844A006
:1023200094F94500401C01D184F845A0FFF796FAC6
:1023300005A9684600F0B2F830B12046FFF7E6F88C
:1023400000F04AFA0020D5E7FFF74CFAA06BE16BEA
:10235000884201D1012500E00025FFF77FFA95B101
:1023600004F110000599FFF725FC2046FFF7CEF891
:1023700000F032FA002894D1C8F80070BFF34F8FF4
:10238000BFF36F8F8DE72046FFF7C0F800F024FA07
:1023900087E700002E2E5C4672656552544F535CF1
:1023A00071756575652E63004572726F723A25739B
:1023B0002C25640D0A00000004ED00E02DE9F04733
:1023C000984615468946040005D140F29F322AA15D
:1023D0002EA0FDF7AFFFB9F1000F07D1206C28B197
:1023E0004FF4687224A129A0FDF7A4FFB8F1020FF1
:1023F00008D1E06B012805D040F2A1321EA123A034
:10240000FDF798FFFFF7BAFA5020EFF3118780F33A
:102410001188BFF34F8FBFF36F8FA06BE16B8842C2
:1024200007D3B8F1020F04D0002087F31188BDE86C
:10243000F08794F94560424649462046FEF775FD0F
:10244000701C04D0761C84F845600120EDE7A06C78
:10245000012620B141462046FEF792FE06E0606A62
:102460000028F2D004F1240000F06AF90028ECD032
:10247000002DEAD02E60E8E72E2E5C46726565528C
:10248000544F535C71756575652E63004572726FAC
:10249000723A25732C25640D0A00000070B50D46B4
:1024A000040005D140F6CB3214A119A0FDF742FF7C
:1024B0002DB940F6CC3211A115A0FDF73BFFFFF777
:1024C00091F9174AD06829684B1C0FD02368126A0B
:1024D000934202D0626882420AD96268801A8842B6
:1024E00006D2081A28602046FFF7FEFB002400E011
:1024F0000124FFF7B3F9204670BD00002E2E5C4684
:1025000072656552544F535C7461736B732E630034
:102510004572726F723A25732C25640D0A00000013
:10252000440000202DE9FF5F8346DDE90E879946D0
:1025300016468A469000FFF725F805001AD05C2061
:10254000FFF720F8040012D025630021CDE90241F5
:10255000CDE900874B46324651465846FEF760FDAE
:102560002046FEF715FC012004B0BDE8F09F284688
:10257000FFF7A6F94FF0FF30F6E700000548416984
:1025800019B1006B18B1002070470120704702207C
:1025900070470000440000200148C06870470000F8
:1025A000440000202DE9F0412D4F0026386B40B14A
:1025B000B869401CB861F86900B101263046BDE831
:1025C000F081FD686D1CFD6011D1786B006828B149
:1025D00040F6D91223A128A0FDF7ACFE786BB96BA9
:1025E0007963B863386A401C3862FEF7EFFEB86A58
:1025F000DFF89480854209D3786B006880B1786BEE
:10260000C068C468606885420DD2B8623868C06A24
:1026100000EB800158F821000128CCD90126CAE737
:102620004FF0FF30F1E7201DFFF798F8A06A18B1CE
:1026300004F11800FFF792F8E06A01213A6981403D
:102640001143396100EB800108EB8100211DFFF788
:10265000BDF8E06A3968C96A8842CDD30126CBE764
:10266000440000202E2E5C4672656552544F535C28
:102670007461736B732E63004572726F723A2573C7
:102680002C25640D0A000000F800002070B504003D
:102690004FF000063CD01F4D2868844205D040F61C
:1026A000C7621DA121A0FDF745FE206D28B940F6A7
:1026B000C96219A11DA0FDF73DFE206D401E2065D9
:1026C000E26CE16A914223D010BB201DFFF746F86F
:1026D0001A49012250B9E06A00EB800351F8233017
:1026E00023B92B6902FA00F083432B61E06CE062AE
:1026F000C0F12000A061E06A2B6982401A432A6180
:1027000000EB800001EB8000211DFFF75FF8012640
:10271000304670BD440000202E2E5C467265655226
:10272000544F535C7461736B732E63004572726F08
:10273000723A25732C25640D0A000000F800002071
:102740002DE9F041C068C4682CB940F6613216A189
:102750001AA0FDF7EFFD04F118000746FEF7FEFF93
:102760001A4D286B012660B139461948FFF72EF83B
:10277000E06A2968C96A884213D90120EE61BDE880
:10278000F081201DFEF7EAFFE06A2A6906FA00F1EF
:10279000114329610F4900EB800001EB8000211DEE
:1027A000E4E70020EBE700002E2E5C4672656552E0
:1027B000544F535C7461736B732E63004572726F78
:1027C000723A25732C25640D0A0000004400002095
:1027D000A0030020F80000202DE9F0472B4D002435
:1027E0002746286B28B94FF4FD6229A12DA0FDF7DB
:1027F000A1FDFEF7F7FF286B401E2863286BE8BB9E
:10280000A8682C490126C8B3A1F52A798846D8F8CA
:102810000010E9B1D8F80C00C46804F11800FEF704
:102820009DFF201DFEF79AFFE06A2A6906FA00F173
:102830001143296100EB800109EB8100211DFEF7A6
:10284000C5FFE06A2968C96A8842E0D3EE61DEE725
:102850000CB1FEF7BBFDAC693CB1FFF7A3FE00B1C4
:10286000EE61641EF9D10020A861E86930B1124917
:10287000012738070860BFF34F8F00E001E0BFF386
:102880006F8FFEF7EBFF3846BDE8F087440000206D
:102890002E2E5C4672656552544F535C7461736BA7
:1028A000732E63004572726F723A25732C25640D86
:1028B0000A000000A003002004ED00E02DE9F0472D
:1028C0000746994616460D462C20DDF820A0FEF757
:1028D00059FE040014D0B8464F46D1462DB94FF4E6
:1028E000C67209A10EA0FDF725FDFEF7B9FA04F1A5
:1028F0001801C4F8008081E8E002201DFEF74BFFBC
:102900002046BDE8F08700002E2E5C4672656552B9
:10291000544F535C74696D6572732E630000000040
:102920004572726F723A25732C25640D0A000000FF
:102930001CB50024FEF794FA0C48006868B10B49F6
:102940001F20091DCDE9000100234FF4827208A168
:102950000948FFF7E7FD040005D140F2331207A153
:102960000CA0FDF7E7FC20461CBD00008000002005
:10297000546D722053766300E51400082E2E5C46D9
:1029800072656552544F535C74696D6572732E6342
:10299000000000004572726F723A25732C25640D99
:1029A0000A0000002DE9FF47DDF830A09946904667
:1029B0000D4606004FF0000705D14FF4D37212A167
:1029C00017A0FDF7B7FC1A4C206880B1CDE900587C
:1029D0000296062D11DAFFF7D1FD02284FF0000311
:1029E00009D0002269462068FFF724FC074604B09E
:1029F0003846BDE8F0875246F4E700234A46694668
:102A0000FFF7DCFCF2E700002E2E5C467265655293
:102A1000544F535C74696D6572732E63000000003F
:102A20004572726F723A25732C25640D0A000000FE
:102A3000800000204FF04070E1EE100A7047000067
:102A4000602A000800000020B8000000C40100084F
:102A5000182B0008B8000020B0590000E001000861
:102A6000000000000000000000000000007A030ADF
:102A7000000000000000000001020304060708092E
:102A80000000FFFF00000000010000000000000047
:102A90000000000000000000000000000000000036
:102AA0000000000000000000000000000000000026
:102AB0000000000000000000000000000000000016
:102AC0000000000000000000000000000000000006
:102AD00000000000000000000000000000000000F6
:102AE00000000000000000000000000000000000E6
:102AF0000000000000000000AAAAAAAA000000002E
:102B000000000000000000000000000000000000C5
:082B10000000000000000000BD
:040000050800018965
:00000001FF
